{
  "contractName": "MyNFT",
  "abi": [
    {
      "inputs": [],
      "stateMutability": "nonpayable",
      "type": "constructor"
    },
    {
      "anonymous": false,
      "inputs": [
        {
          "indexed": true,
          "internalType": "address",
          "name": "owner",
          "type": "address"
        },
        {
          "indexed": true,
          "internalType": "address",
          "name": "approved",
          "type": "address"
        },
        {
          "indexed": true,
          "internalType": "uint256",
          "name": "tokenId",
          "type": "uint256"
        }
      ],
      "name": "Approval",
      "type": "event"
    },
    {
      "anonymous": false,
      "inputs": [
        {
          "indexed": true,
          "internalType": "address",
          "name": "owner",
          "type": "address"
        },
        {
          "indexed": true,
          "internalType": "address",
          "name": "operator",
          "type": "address"
        },
        {
          "indexed": false,
          "internalType": "bool",
          "name": "approved",
          "type": "bool"
        }
      ],
      "name": "ApprovalForAll",
      "type": "event"
    },
    {
      "anonymous": false,
      "inputs": [
        {
          "indexed": false,
          "internalType": "uint256",
          "name": "_fromTokenId",
          "type": "uint256"
        },
        {
          "indexed": false,
          "internalType": "uint256",
          "name": "_toTokenId",
          "type": "uint256"
        }
      ],
      "name": "BatchMetadataUpdate",
      "type": "event"
    },
    {
      "anonymous": false,
      "inputs": [
        {
          "indexed": false,
          "internalType": "uint256",
          "name": "_tokenId",
          "type": "uint256"
        }
      ],
      "name": "MetadataUpdate",
      "type": "event"
    },
    {
      "anonymous": false,
      "inputs": [
        {
          "indexed": false,
          "internalType": "address",
          "name": "recipient",
          "type": "address"
        },
        {
          "indexed": false,
          "internalType": "uint256",
          "name": "tokenId",
          "type": "uint256"
        },
        {
          "indexed": false,
          "internalType": "string",
          "name": "tokenURI",
          "type": "string"
        }
      ],
      "name": "Minted",
      "type": "event"
    },
    {
      "anonymous": false,
      "inputs": [
        {
          "indexed": true,
          "internalType": "address",
          "name": "previousOwner",
          "type": "address"
        },
        {
          "indexed": true,
          "internalType": "address",
          "name": "newOwner",
          "type": "address"
        }
      ],
      "name": "OwnershipTransferred",
      "type": "event"
    },
    {
      "anonymous": false,
      "inputs": [
        {
          "indexed": true,
          "internalType": "address",
          "name": "from",
          "type": "address"
        },
        {
          "indexed": true,
          "internalType": "address",
          "name": "to",
          "type": "address"
        },
        {
          "indexed": true,
          "internalType": "uint256",
          "name": "tokenId",
          "type": "uint256"
        }
      ],
      "name": "Transfer",
      "type": "event"
    },
    {
      "inputs": [
        {
          "internalType": "address",
          "name": "to",
          "type": "address"
        },
        {
          "internalType": "uint256",
          "name": "tokenId",
          "type": "uint256"
        }
      ],
      "name": "approve",
      "outputs": [],
      "stateMutability": "nonpayable",
      "type": "function"
    },
    {
      "inputs": [
        {
          "internalType": "address",
          "name": "owner",
          "type": "address"
        }
      ],
      "name": "balanceOf",
      "outputs": [
        {
          "internalType": "uint256",
          "name": "",
          "type": "uint256"
        }
      ],
      "stateMutability": "view",
      "type": "function",
      "constant": true
    },
    {
      "inputs": [
        {
          "internalType": "uint256",
          "name": "tokenId",
          "type": "uint256"
        }
      ],
      "name": "getApproved",
      "outputs": [
        {
          "internalType": "address",
          "name": "",
          "type": "address"
        }
      ],
      "stateMutability": "view",
      "type": "function",
      "constant": true
    },
    {
      "inputs": [
        {
          "internalType": "address",
          "name": "owner",
          "type": "address"
        },
        {
          "internalType": "address",
          "name": "operator",
          "type": "address"
        }
      ],
      "name": "isApprovedForAll",
      "outputs": [
        {
          "internalType": "bool",
          "name": "",
          "type": "bool"
        }
      ],
      "stateMutability": "view",
      "type": "function",
      "constant": true
    },
    {
      "inputs": [],
      "name": "name",
      "outputs": [
        {
          "internalType": "string",
          "name": "",
          "type": "string"
        }
      ],
      "stateMutability": "view",
      "type": "function",
      "constant": true
    },
    {
      "inputs": [],
      "name": "nextTokenId",
      "outputs": [
        {
          "internalType": "uint256",
          "name": "",
          "type": "uint256"
        }
      ],
      "stateMutability": "view",
      "type": "function",
      "constant": true
    },
    {
      "inputs": [],
      "name": "owner",
      "outputs": [
        {
          "internalType": "address",
          "name": "",
          "type": "address"
        }
      ],
      "stateMutability": "view",
      "type": "function",
      "constant": true
    },
    {
      "inputs": [
        {
          "internalType": "uint256",
          "name": "tokenId",
          "type": "uint256"
        }
      ],
      "name": "ownerOf",
      "outputs": [
        {
          "internalType": "address",
          "name": "",
          "type": "address"
        }
      ],
      "stateMutability": "view",
      "type": "function",
      "constant": true
    },
    {
      "inputs": [],
      "name": "renounceOwnership",
      "outputs": [],
      "stateMutability": "nonpayable",
      "type": "function"
    },
    {
      "inputs": [
        {
          "internalType": "address",
          "name": "from",
          "type": "address"
        },
        {
          "internalType": "address",
          "name": "to",
          "type": "address"
        },
        {
          "internalType": "uint256",
          "name": "tokenId",
          "type": "uint256"
        }
      ],
      "name": "safeTransferFrom",
      "outputs": [],
      "stateMutability": "nonpayable",
      "type": "function"
    },
    {
      "inputs": [
        {
          "internalType": "address",
          "name": "from",
          "type": "address"
        },
        {
          "internalType": "address",
          "name": "to",
          "type": "address"
        },
        {
          "internalType": "uint256",
          "name": "tokenId",
          "type": "uint256"
        },
        {
          "internalType": "bytes",
          "name": "data",
          "type": "bytes"
        }
      ],
      "name": "safeTransferFrom",
      "outputs": [],
      "stateMutability": "nonpayable",
      "type": "function"
    },
    {
      "inputs": [
        {
          "internalType": "address",
          "name": "operator",
          "type": "address"
        },
        {
          "internalType": "bool",
          "name": "approved",
          "type": "bool"
        }
      ],
      "name": "setApprovalForAll",
      "outputs": [],
      "stateMutability": "nonpayable",
      "type": "function"
    },
    {
      "inputs": [],
      "name": "symbol",
      "outputs": [
        {
          "internalType": "string",
          "name": "",
          "type": "string"
        }
      ],
      "stateMutability": "view",
      "type": "function",
      "constant": true
    },
    {
      "inputs": [
        {
          "internalType": "uint256",
          "name": "index",
          "type": "uint256"
        }
      ],
      "name": "tokenByIndex",
      "outputs": [
        {
          "internalType": "uint256",
          "name": "",
          "type": "uint256"
        }
      ],
      "stateMutability": "view",
      "type": "function",
      "constant": true
    },
    {
      "inputs": [
        {
          "internalType": "address",
          "name": "owner",
          "type": "address"
        },
        {
          "internalType": "uint256",
          "name": "index",
          "type": "uint256"
        }
      ],
      "name": "tokenOfOwnerByIndex",
      "outputs": [
        {
          "internalType": "uint256",
          "name": "",
          "type": "uint256"
        }
      ],
      "stateMutability": "view",
      "type": "function",
      "constant": true
    },
    {
      "inputs": [],
      "name": "totalSupply",
      "outputs": [
        {
          "internalType": "uint256",
          "name": "",
          "type": "uint256"
        }
      ],
      "stateMutability": "view",
      "type": "function",
      "constant": true
    },
    {
      "inputs": [
        {
          "internalType": "address",
          "name": "from",
          "type": "address"
        },
        {
          "internalType": "address",
          "name": "to",
          "type": "address"
        },
        {
          "internalType": "uint256",
          "name": "tokenId",
          "type": "uint256"
        }
      ],
      "name": "transferFrom",
      "outputs": [],
      "stateMutability": "nonpayable",
      "type": "function"
    },
    {
      "inputs": [
        {
          "internalType": "address",
          "name": "newOwner",
          "type": "address"
        }
      ],
      "name": "transferOwnership",
      "outputs": [],
      "stateMutability": "nonpayable",
      "type": "function"
    },
    {
      "inputs": [
        {
          "internalType": "address",
          "name": "recipient",
          "type": "address"
        },
        {
          "internalType": "string",
          "name": "_tokenURI",
          "type": "string"
        }
      ],
      "name": "mint",
      "outputs": [],
      "stateMutability": "nonpayable",
      "type": "function"
    },
    {
      "inputs": [
        {
          "internalType": "uint256",
          "name": "tokenId",
          "type": "uint256"
        }
      ],
      "name": "tokenExists",
      "outputs": [
        {
          "internalType": "bool",
          "name": "",
          "type": "bool"
        }
      ],
      "stateMutability": "view",
      "type": "function",
      "constant": true
    },
    {
      "inputs": [
        {
          "internalType": "uint256",
          "name": "tokenId",
          "type": "uint256"
        }
      ],
      "name": "tokenURI",
      "outputs": [
        {
          "internalType": "string",
          "name": "",
          "type": "string"
        }
      ],
      "stateMutability": "view",
      "type": "function",
      "constant": true
    },
    {
      "inputs": [
        {
          "internalType": "bytes4",
          "name": "interfaceId",
          "type": "bytes4"
        }
      ],
      "name": "supportsInterface",
      "outputs": [
        {
          "internalType": "bool",
          "name": "",
          "type": "bool"
        }
      ],
      "stateMutability": "view",
      "type": "function",
      "constant": true
    }
  ],
  "bytecode": "0x60806040523480156200001157600080fd5b506040518060400160405280600581526020017f4d794e46540000000000000000000000000000000000000000000000000000008152506040518060400160405280600481526020017f4d4e465400000000000000000000000000000000000000000000000000000000815250816000908051906020019062000096929190620001a6565b508060019080519060200190620000af929190620001a6565b505050620000d2620000c6620000d860201b60201c565b620000e060201b60201c565b620002bb565b600033905090565b6000600b60009054906101000a900473ffffffffffffffffffffffffffffffffffffffff16905081600b60006101000a81548173ffffffffffffffffffffffffffffffffffffffff021916908373ffffffffffffffffffffffffffffffffffffffff1602179055508173ffffffffffffffffffffffffffffffffffffffff168173ffffffffffffffffffffffffffffffffffffffff167f8be0079c531659141344cd1fd0a4f28419497f9722a3daafe3b4186f6b6457e060405160405180910390a35050565b828054620001b49062000256565b90600052602060002090601f016020900481019282620001d8576000855562000224565b82601f10620001f357805160ff191683800117855562000224565b8280016001018555821562000224579182015b828111156200022357825182559160200191906001019062000206565b5b50905062000233919062000237565b5090565b5b808211156200025257600081600090555060010162000238565b5090565b600060028204905060018216806200026f57607f821691505b602082108114156200028657620002856200028c565b5b50919050565b7f4e487b7100000000000000000000000000000000000000000000000000000000600052602260045260246000fd5b61398680620002cb6000396000f3fe608060405234801561001057600080fd5b50600436106101415760003560e01c806370a08231116100b8578063a22cb4651161007c578063a22cb4651461038a578063b88d4fde146103a6578063c87b56dd146103c2578063d0def521146103f2578063e985e9c51461040e578063f2fde38b1461043e57610141565b806370a08231146102f6578063715018a61461032657806375794a3c146103305780638da5cb5b1461034e57806395d89b411461036c57610141565b806318160ddd1161010a57806318160ddd1461021057806323b872dd1461022e5780632f745c591461024a57806342842e0e1461027a5780634f6ccce7146102965780636352211e146102c657610141565b8062923f9e1461014657806301ffc9a71461017657806306fdde03146101a6578063081812fc146101c4578063095ea7b3146101f4575b600080fd5b610160600480360381019061015b9190612a7c565b61045a565b60405161016d9190612eb4565b60405180910390f35b610190600480360381019061018b9190612a2a565b610525565b60405161019d9190612eb4565b60405180910390f35b6101ae610537565b6040516101bb9190612ecf565b60405180910390f35b6101de60048036038101906101d99190612a7c565b6105c9565b6040516101eb9190612e0f565b60405180910390f35b61020e600480360381019061020991906129ee565b61060f565b005b610218610727565b6040516102259190613131565b60405180910390f35b61024860048036038101906102439190612894565b610734565b005b610264600480360381019061025f91906129ee565b610794565b6040516102719190613131565b60405180910390f35b610294600480360381019061028f9190612894565b610839565b005b6102b060048036038101906102ab9190612a7c565b610859565b6040516102bd9190613131565b60405180910390f35b6102e060048036038101906102db9190612a7c565b6108f0565b6040516102ed9190612e0f565b60405180910390f35b610310600480360381019061030b9190612806565b610977565b60405161031d9190613131565b60405180910390f35b61032e610a2f565b005b610338610a43565b6040516103459190613131565b60405180910390f35b610356610a49565b6040516103639190612e0f565b60405180910390f35b610374610a73565b6040516103819190612ecf565b60405180910390f35b6103a4600480360381019061039f919061295e565b610b05565b005b6103c060048036038101906103bb91906128e3565b610b1b565b005b6103dc60048036038101906103d79190612a7c565b610b7d565b6040516103e99190612ecf565b60405180910390f35b61040c6004803603810190610407919061299a565b610bd7565b005b61042860048036038101906104239190612858565b610c4a565b6040516104359190612eb4565b60405180910390f35b61045860048036038101906104539190612806565b610cde565b005b60003073ffffffffffffffffffffffffffffffffffffffff16636352211e836040518263ffffffff1660e01b81526004016104959190613131565b60206040518083038186803b1580156104ad57600080fd5b505afa9250505080156104de57506040513d601f19601f820116820180604052508101906104db919061282f565b60015b6104eb5760009050610520565b600073ffffffffffffffffffffffffffffffffffffffff168173ffffffffffffffffffffffffffffffffffffffff1614159150505b919050565b600061053082610d62565b9050919050565b60606000805461054690613300565b80601f016020809104026020016040519081016040528092919081815260200182805461057290613300565b80156105bf5780601f10610594576101008083540402835291602001916105bf565b820191906000526020600020905b8154815290600101906020018083116105a257829003601f168201915b5050505050905090565b60006105d482610ddc565b6004600083815260200190815260200160002060009054906101000a900473ffffffffffffffffffffffffffffffffffffffff169050919050565b600061061a826108f0565b90508073ffffffffffffffffffffffffffffffffffffffff168373ffffffffffffffffffffffffffffffffffffffff16141561068b576040517f08c379a0000000000000000000000000000000000000000000000000000000008152600401610682906130b1565b60405180910390fd5b8073ffffffffffffffffffffffffffffffffffffffff166106aa610e27565b73ffffffffffffffffffffffffffffffffffffffff1614806106d957506106d8816106d3610e27565b610c4a565b5b610718576040517f08c379a000000000000000000000000000000000000000000000000000000000815260040161070f906130d1565b60405180910390fd5b6107228383610e2f565b505050565b6000600980549050905090565b61074561073f610e27565b82610ee8565b610784576040517f08c379a000000000000000000000000000000000000000000000000000000000815260040161077b90612ef1565b60405180910390fd5b61078f838383610f7d565b505050565b600061079f83610977565b82106107e0576040517f08c379a00000000000000000000000000000000000000000000000000000000081526004016107d790612f11565b60405180910390fd5b600760008473ffffffffffffffffffffffffffffffffffffffff1673ffffffffffffffffffffffffffffffffffffffff168152602001908152602001600020600083815260200190815260200160002054905092915050565b61085483838360405180602001604052806000815250610b1b565b505050565b6000610863610727565b82106108a4576040517f08c379a000000000000000000000000000000000000000000000000000000000815260040161089b906130f1565b60405180910390fd5b600982815481106108de577f4e487b7100000000000000000000000000000000000000000000000000000000600052603260045260246000fd5b90600052602060002001549050919050565b6000806108fc83611277565b9050600073ffffffffffffffffffffffffffffffffffffffff168173ffffffffffffffffffffffffffffffffffffffff16141561096e576040517f08c379a000000000000000000000000000000000000000000000000000000000815260040161096590613091565b60405180910390fd5b80915050919050565b60008073ffffffffffffffffffffffffffffffffffffffff168273ffffffffffffffffffffffffffffffffffffffff1614156109e8576040517f08c379a00000000000000000000000000000000000000000000000000000000081526004016109df90612ff1565b60405180910390fd5b600360008373ffffffffffffffffffffffffffffffffffffffff1673ffffffffffffffffffffffffffffffffffffffff168152602001908152602001600020549050919050565b610a376112b4565b610a416000611332565b565b600c5481565b6000600b60009054906101000a900473ffffffffffffffffffffffffffffffffffffffff16905090565b606060018054610a8290613300565b80601f0160208091040260200160405190810160405280929190818152602001828054610aae90613300565b8015610afb5780601f10610ad057610100808354040283529160200191610afb565b820191906000526020600020905b815481529060010190602001808311610ade57829003601f168201915b5050505050905090565b610b17610b10610e27565b83836113f8565b5050565b610b2c610b26610e27565b83610ee8565b610b6b576040517f08c379a0000000000000000000000000000000000000000000000000000000008152600401610b6290612ef1565b60405180910390fd5b610b7784848484611565565b50505050565b6060610b888261045a565b610bc7576040517f08c379a0000000000000000000000000000000000000000000000000000000008152600401610bbe90613051565b60405180910390fd5b610bd0826115c1565b9050919050565b6000600c549050600c6000815480929190610bf190613363565b9190505550610c0083826116d4565b610c0a81836118f2565b7fe7cd4ce7f2a465edc730269a1305e8a48bad821e8fb7e152ec413829c01a53c4838284604051610c3d93929190612e76565b60405180910390a1505050565b6000600560008473ffffffffffffffffffffffffffffffffffffffff1673ffffffffffffffffffffffffffffffffffffffff16815260200190815260200160002060008373ffffffffffffffffffffffffffffffffffffffff1673ffffffffffffffffffffffffffffffffffffffff16815260200190815260200160002060009054906101000a900460ff16905092915050565b610ce66112b4565b600073ffffffffffffffffffffffffffffffffffffffff168173ffffffffffffffffffffffffffffffffffffffff161415610d56576040517f08c379a0000000000000000000000000000000000000000000000000000000008152600401610d4d90612f51565b60405180910390fd5b610d5f81611332565b50565b60007f780e9d63000000000000000000000000000000000000000000000000000000007bffffffffffffffffffffffffffffffffffffffffffffffffffffffff1916827bffffffffffffffffffffffffffffffffffffffffffffffffffffffff19161480610dd55750610dd48261199d565b5b9050919050565b610de5816119fe565b610e24576040517f08c379a0000000000000000000000000000000000000000000000000000000008152600401610e1b90613091565b60405180910390fd5b50565b600033905090565b816004600083815260200190815260200160002060006101000a81548173ffffffffffffffffffffffffffffffffffffffff021916908373ffffffffffffffffffffffffffffffffffffffff160217905550808273ffffffffffffffffffffffffffffffffffffffff16610ea2836108f0565b73ffffffffffffffffffffffffffffffffffffffff167f8c5be1e5ebec7d5bd14f71427d1e84f3dd0314c0f7b2291e5b200ac8c7c3b92560405160405180910390a45050565b600080610ef4836108f0565b90508073ffffffffffffffffffffffffffffffffffffffff168473ffffffffffffffffffffffffffffffffffffffff161480610f365750610f358185610c4a565b5b80610f7457508373ffffffffffffffffffffffffffffffffffffffff16610f5c846105c9565b73ffffffffffffffffffffffffffffffffffffffff16145b91505092915050565b8273ffffffffffffffffffffffffffffffffffffffff16610f9d826108f0565b73ffffffffffffffffffffffffffffffffffffffff1614610ff3576040517f08c379a0000000000000000000000000000000000000000000000000000000008152600401610fea90612f71565b60405180910390fd5b600073ffffffffffffffffffffffffffffffffffffffff168273ffffffffffffffffffffffffffffffffffffffff161415611063576040517f08c379a000000000000000000000000000000000000000000000000000000000815260040161105a90612fb1565b60405180910390fd5b6110708383836001611a3f565b8273ffffffffffffffffffffffffffffffffffffffff16611090826108f0565b73ffffffffffffffffffffffffffffffffffffffff16146110e6576040517f08c379a00000000000000000000000000000000000000000000000000000000081526004016110dd90612f71565b60405180910390fd5b6004600082815260200190815260200160002060006101000a81549073ffffffffffffffffffffffffffffffffffffffff02191690556001600360008573ffffffffffffffffffffffffffffffffffffffff1673ffffffffffffffffffffffffffffffffffffffff168152602001908152602001600020600082825403925050819055506001600360008473ffffffffffffffffffffffffffffffffffffffff1673ffffffffffffffffffffffffffffffffffffffff16815260200190815260200160002060008282540192505081905550816002600083815260200190815260200160002060006101000a81548173ffffffffffffffffffffffffffffffffffffffff021916908373ffffffffffffffffffffffffffffffffffffffff160217905550808273ffffffffffffffffffffffffffffffffffffffff168473ffffffffffffffffffffffffffffffffffffffff167fddf252ad1be2c89b69c2b068fc378daa952ba7f163c4a11628f55a4df523b3ef60405160405180910390a46112728383836001611a51565b505050565b60006002600083815260200190815260200160002060009054906101000a900473ffffffffffffffffffffffffffffffffffffffff169050919050565b6112bc610e27565b73ffffffffffffffffffffffffffffffffffffffff166112da610a49565b73ffffffffffffffffffffffffffffffffffffffff1614611330576040517f08c379a000000000000000000000000000000000000000000000000000000000815260040161132790613071565b60405180910390fd5b565b6000600b60009054906101000a900473ffffffffffffffffffffffffffffffffffffffff16905081600b60006101000a81548173ffffffffffffffffffffffffffffffffffffffff021916908373ffffffffffffffffffffffffffffffffffffffff1602179055508173ffffffffffffffffffffffffffffffffffffffff168173ffffffffffffffffffffffffffffffffffffffff167f8be0079c531659141344cd1fd0a4f28419497f9722a3daafe3b4186f6b6457e060405160405180910390a35050565b8173ffffffffffffffffffffffffffffffffffffffff168373ffffffffffffffffffffffffffffffffffffffff161415611467576040517f08c379a000000000000000000000000000000000000000000000000000000000815260040161145e90612fd1565b60405180910390fd5b80600560008573ffffffffffffffffffffffffffffffffffffffff1673ffffffffffffffffffffffffffffffffffffffff16815260200190815260200160002060008473ffffffffffffffffffffffffffffffffffffffff1673ffffffffffffffffffffffffffffffffffffffff16815260200190815260200160002060006101000a81548160ff0219169083151502179055508173ffffffffffffffffffffffffffffffffffffffff168373ffffffffffffffffffffffffffffffffffffffff167f17307eab39ab6107e8899845ad3d59bd9653f200f220920489ca2b5937696c31836040516115589190612eb4565b60405180910390a3505050565b611570848484610f7d565b61157c84848484611a57565b6115bb576040517f08c379a00000000000000000000000000000000000000000000000000000000081526004016115b290612f31565b60405180910390fd5b50505050565b60606115cc82610ddc565b60006006600084815260200190815260200160002080546115ec90613300565b80601f016020809104026020016040519081016040528092919081815260200182805461161890613300565b80156116655780601f1061163a57610100808354040283529160200191611665565b820191906000526020600020905b81548152906001019060200180831161164857829003601f168201915b505050505090506000611676611bee565b905060008151141561168c5781925050506116cf565b6000825111156116c15780826040516020016116a9929190612deb565b604051602081830303815290604052925050506116cf565b6116ca84611c05565b925050505b919050565b600073ffffffffffffffffffffffffffffffffffffffff168273ffffffffffffffffffffffffffffffffffffffff161415611744576040517f08c379a000000000000000000000000000000000000000000000000000000000815260040161173b90613031565b60405180910390fd5b61174d816119fe565b1561178d576040517f08c379a000000000000000000000000000000000000000000000000000000000815260040161178490612f91565b60405180910390fd5b61179b600083836001611a3f565b6117a4816119fe565b156117e4576040517f08c379a00000000000000000000000000000000000000000000000000000000081526004016117db90612f91565b60405180910390fd5b6001600360008473ffffffffffffffffffffffffffffffffffffffff1673ffffffffffffffffffffffffffffffffffffffff16815260200190815260200160002060008282540192505081905550816002600083815260200190815260200160002060006101000a81548173ffffffffffffffffffffffffffffffffffffffff021916908373ffffffffffffffffffffffffffffffffffffffff160217905550808273ffffffffffffffffffffffffffffffffffffffff16600073ffffffffffffffffffffffffffffffffffffffff167fddf252ad1be2c89b69c2b068fc378daa952ba7f163c4a11628f55a4df523b3ef60405160405180910390a46118ee600083836001611a51565b5050565b6118fb826119fe565b61193a576040517f08c379a000000000000000000000000000000000000000000000000000000000815260040161193190613011565b60405180910390fd5b80600660008481526020019081526020016000209080519060200190611961929190612615565b507ff8e1a15aba9398e019f0b49df1a4fde98ee17ae345cb5f6b5e2c27f5033e8ce7826040516119919190613131565b60405180910390a15050565b6000634906490660e01b7bffffffffffffffffffffffffffffffffffffffffffffffffffffffff1916827bffffffffffffffffffffffffffffffffffffffffffffffffffffffff191614806119f757506119f682611c6d565b5b9050919050565b60008073ffffffffffffffffffffffffffffffffffffffff16611a2083611277565b73ffffffffffffffffffffffffffffffffffffffff1614159050919050565b611a4b84848484611d4f565b50505050565b50505050565b6000611a788473ffffffffffffffffffffffffffffffffffffffff16611eaf565b15611be1578373ffffffffffffffffffffffffffffffffffffffff1663150b7a02611aa1610e27565b8786866040518563ffffffff1660e01b8152600401611ac39493929190612e2a565b602060405180830381600087803b158015611add57600080fd5b505af1925050508015611b0e57506040513d601f19601f82011682018060405250810190611b0b9190612a53565b60015b611b91573d8060008114611b3e576040519150601f19603f3d011682016040523d82523d6000602084013e611b43565b606091505b50600081511415611b89576040517f08c379a0000000000000000000000000000000000000000000000000000000008152600401611b8090612f31565b60405180910390fd5b805181602001fd5b63150b7a0260e01b7bffffffffffffffffffffffffffffffffffffffffffffffffffffffff1916817bffffffffffffffffffffffffffffffffffffffffffffffffffffffff191614915050611be6565b600190505b949350505050565b606060405180602001604052806000815250905090565b6060611c1082610ddc565b6000611c1a611bee565b90506000815111611c3a5760405180602001604052806000815250611c65565b80611c4484611ed2565b604051602001611c55929190612deb565b6040516020818303038152906040525b915050919050565b60007f80ac58cd000000000000000000000000000000000000000000000000000000007bffffffffffffffffffffffffffffffffffffffffffffffffffffffff1916827bffffffffffffffffffffffffffffffffffffffffffffffffffffffff19161480611d3857507f5b5e139f000000000000000000000000000000000000000000000000000000007bffffffffffffffffffffffffffffffffffffffffffffffffffffffff1916827bffffffffffffffffffffffffffffffffffffffffffffffffffffffff1916145b80611d485750611d4782611ff6565b5b9050919050565b611d5b84848484612060565b6001811115611d9f576040517f08c379a0000000000000000000000000000000000000000000000000000000008152600401611d9690613111565b60405180910390fd5b6000829050600073ffffffffffffffffffffffffffffffffffffffff168573ffffffffffffffffffffffffffffffffffffffff161415611de757611de281612066565b611e26565b8373ffffffffffffffffffffffffffffffffffffffff168573ffffffffffffffffffffffffffffffffffffffff1614611e2557611e2485826120af565b5b5b600073ffffffffffffffffffffffffffffffffffffffff168473ffffffffffffffffffffffffffffffffffffffff161415611e6957611e648161221c565b611ea8565b8473ffffffffffffffffffffffffffffffffffffffff168473ffffffffffffffffffffffffffffffffffffffff1614611ea757611ea6848261235f565b5b5b5050505050565b6000808273ffffffffffffffffffffffffffffffffffffffff163b119050919050565b606060006001611ee1846123de565b01905060008167ffffffffffffffff811115611f26577f4e487b7100000000000000000000000000000000000000000000000000000000600052604160045260246000fd5b6040519080825280601f01601f191660200182016040528015611f585781602001600182028036833780820191505090505b509050600082602001820190505b600115611feb578080600190039150507f3031323334353637383961626364656600000000000000000000000000000000600a86061a8153600a8581611fd5577f4e487b7100000000000000000000000000000000000000000000000000000000600052601260045260246000fd5b0494506000851415611fe657611feb565b611f66565b819350505050919050565b60007f01ffc9a7000000000000000000000000000000000000000000000000000000007bffffffffffffffffffffffffffffffffffffffffffffffffffffffff1916827bffffffffffffffffffffffffffffffffffffffffffffffffffffffff1916149050919050565b50505050565b600980549050600a600083815260200190815260200160002081905550600981908060018154018082558091505060019003906000526020600020016000909190919091505550565b600060016120bc84610977565b6120c69190613216565b90506000600860008481526020019081526020016000205490508181146121ab576000600760008673ffffffffffffffffffffffffffffffffffffffff1673ffffffffffffffffffffffffffffffffffffffff168152602001908152602001600020600084815260200190815260200160002054905080600760008773ffffffffffffffffffffffffffffffffffffffff1673ffffffffffffffffffffffffffffffffffffffff168152602001908152602001600020600084815260200190815260200160002081905550816008600083815260200190815260200160002081905550505b6008600084815260200190815260200160002060009055600760008573ffffffffffffffffffffffffffffffffffffffff1673ffffffffffffffffffffffffffffffffffffffff16815260200190815260200160002060008381526020019081526020016000206000905550505050565b600060016009805490506122309190613216565b90506000600a6000848152602001908152602001600020549050600060098381548110612286577f4e487b7100000000000000000000000000000000000000000000000000000000600052603260045260246000fd5b9060005260206000200154905080600983815481106122ce577f4e487b7100000000000000000000000000000000000000000000000000000000600052603260045260246000fd5b906000526020600020018190555081600a600083815260200190815260200160002081905550600a6000858152602001908152602001600020600090556009805480612343577f4e487b7100000000000000000000000000000000000000000000000000000000600052603160045260246000fd5b6001900381819060005260206000200160009055905550505050565b600061236a83610977565b905081600760008573ffffffffffffffffffffffffffffffffffffffff1673ffffffffffffffffffffffffffffffffffffffff168152602001908152602001600020600083815260200190815260200160002081905550806008600084815260200190815260200160002081905550505050565b600080600090507a184f03e93ff9f4daa797ed6e38ed64bf6a1f0100000000000000008310612462577a184f03e93ff9f4daa797ed6e38ed64bf6a1f0100000000000000008381612458577f4e487b7100000000000000000000000000000000000000000000000000000000600052601260045260246000fd5b0492506040810190505b6d04ee2d6d415b85acef810000000083106124c5576d04ee2d6d415b85acef810000000083816124bb577f4e487b7100000000000000000000000000000000000000000000000000000000600052601260045260246000fd5b0492506020810190505b662386f26fc10000831061251a57662386f26fc100008381612510577f4e487b7100000000000000000000000000000000000000000000000000000000600052601260045260246000fd5b0492506010810190505b6305f5e1008310612569576305f5e100838161255f577f4e487b7100000000000000000000000000000000000000000000000000000000600052601260045260246000fd5b0492506008810190505b61271083106125b45761271083816125aa577f4e487b7100000000000000000000000000000000000000000000000000000000600052601260045260246000fd5b0492506004810190505b606483106125fd57606483816125f3577f4e487b7100000000000000000000000000000000000000000000000000000000600052601260045260246000fd5b0492506002810190505b600a831061260c576001810190505b80915050919050565b82805461262190613300565b90600052602060002090601f016020900481019282612643576000855561268a565b82601f1061265c57805160ff191683800117855561268a565b8280016001018555821561268a579182015b8281111561268957825182559160200191906001019061266e565b5b509050612697919061269b565b5090565b5b808211156126b457600081600090555060010161269c565b5090565b60006126cb6126c684613171565b61314c565b9050828152602081018484840111156126e357600080fd5b6126ee8482856132be565b509392505050565b6000612709612704846131a2565b61314c565b90508281526020810184848401111561272157600080fd5b61272c8482856132be565b509392505050565b600081359050612743816138f4565b92915050565b600081519050612758816138f4565b92915050565b60008135905061276d8161390b565b92915050565b60008135905061278281613922565b92915050565b60008151905061279781613922565b92915050565b600082601f8301126127ae57600080fd5b81356127be8482602086016126b8565b91505092915050565b600082601f8301126127d857600080fd5b81356127e88482602086016126f6565b91505092915050565b60008135905061280081613939565b92915050565b60006020828403121561281857600080fd5b600061282684828501612734565b91505092915050565b60006020828403121561284157600080fd5b600061284f84828501612749565b91505092915050565b6000806040838503121561286b57600080fd5b600061287985828601612734565b925050602061288a85828601612734565b9150509250929050565b6000806000606084860312156128a957600080fd5b60006128b786828701612734565b93505060206128c886828701612734565b92505060406128d9868287016127f1565b9150509250925092565b600080600080608085870312156128f957600080fd5b600061290787828801612734565b945050602061291887828801612734565b9350506040612929878288016127f1565b925050606085013567ffffffffffffffff81111561294657600080fd5b6129528782880161279d565b91505092959194509250565b6000806040838503121561297157600080fd5b600061297f85828601612734565b92505060206129908582860161275e565b9150509250929050565b600080604083850312156129ad57600080fd5b60006129bb85828601612734565b925050602083013567ffffffffffffffff8111156129d857600080fd5b6129e4858286016127c7565b9150509250929050565b60008060408385031215612a0157600080fd5b6000612a0f85828601612734565b9250506020612a20858286016127f1565b9150509250929050565b600060208284031215612a3c57600080fd5b6000612a4a84828501612773565b91505092915050565b600060208284031215612a6557600080fd5b6000612a7384828501612788565b91505092915050565b600060208284031215612a8e57600080fd5b6000612a9c848285016127f1565b91505092915050565b612aae8161324a565b82525050565b612abd8161325c565b82525050565b6000612ace826131d3565b612ad881856131e9565b9350612ae88185602086016132cd565b612af181613439565b840191505092915050565b6000612b07826131de565b612b1181856131fa565b9350612b218185602086016132cd565b612b2a81613439565b840191505092915050565b6000612b40826131de565b612b4a818561320b565b9350612b5a8185602086016132cd565b80840191505092915050565b6000612b73602d836131fa565b9150612b7e8261344a565b604082019050919050565b6000612b96602b836131fa565b9150612ba182613499565b604082019050919050565b6000612bb96032836131fa565b9150612bc4826134e8565b604082019050919050565b6000612bdc6026836131fa565b9150612be782613537565b604082019050919050565b6000612bff6025836131fa565b9150612c0a82613586565b604082019050919050565b6000612c22601c836131fa565b9150612c2d826135d5565b602082019050919050565b6000612c456024836131fa565b9150612c50826135fe565b604082019050919050565b6000612c686019836131fa565b9150612c738261364d565b602082019050919050565b6000612c8b6029836131fa565b9150612c9682613676565b604082019050919050565b6000612cae602e836131fa565b9150612cb9826136c5565b604082019050919050565b6000612cd16020836131fa565b9150612cdc82613714565b602082019050919050565b6000612cf46015836131fa565b9150612cff8261373d565b602082019050919050565b6000612d176020836131fa565b9150612d2282613766565b602082019050919050565b6000612d3a6018836131fa565b9150612d458261378f565b602082019050919050565b6000612d5d6021836131fa565b9150612d68826137b8565b604082019050919050565b6000612d80603d836131fa565b9150612d8b82613807565b604082019050919050565b6000612da3602c836131fa565b9150612dae82613856565b604082019050919050565b6000612dc66035836131fa565b9150612dd1826138a5565b604082019050919050565b612de5816132b4565b82525050565b6000612df78285612b35565b9150612e038284612b35565b91508190509392505050565b6000602082019050612e246000830184612aa5565b92915050565b6000608082019050612e3f6000830187612aa5565b612e4c6020830186612aa5565b612e596040830185612ddc565b8181036060830152612e6b8184612ac3565b905095945050505050565b6000606082019050612e8b6000830186612aa5565b612e986020830185612ddc565b8181036040830152612eaa8184612afc565b9050949350505050565b6000602082019050612ec96000830184612ab4565b92915050565b60006020820190508181036000830152612ee98184612afc565b905092915050565b60006020820190508181036000830152612f0a81612b66565b9050919050565b60006020820190508181036000830152612f2a81612b89565b9050919050565b60006020820190508181036000830152612f4a81612bac565b9050919050565b60006020820190508181036000830152612f6a81612bcf565b9050919050565b60006020820190508181036000830152612f8a81612bf2565b9050919050565b60006020820190508181036000830152612faa81612c15565b9050919050565b60006020820190508181036000830152612fca81612c38565b9050919050565b60006020820190508181036000830152612fea81612c5b565b9050919050565b6000602082019050818103600083015261300a81612c7e565b9050919050565b6000602082019050818103600083015261302a81612ca1565b9050919050565b6000602082019050818103600083015261304a81612cc4565b9050919050565b6000602082019050818103600083015261306a81612ce7565b9050919050565b6000602082019050818103600083015261308a81612d0a565b9050919050565b600060208201905081810360008301526130aa81612d2d565b9050919050565b600060208201905081810360008301526130ca81612d50565b9050919050565b600060208201905081810360008301526130ea81612d73565b9050919050565b6000602082019050818103600083015261310a81612d96565b9050919050565b6000602082019050818103600083015261312a81612db9565b9050919050565b60006020820190506131466000830184612ddc565b92915050565b6000613156613167565b90506131628282613332565b919050565b6000604051905090565b600067ffffffffffffffff82111561318c5761318b61340a565b5b61319582613439565b9050602081019050919050565b600067ffffffffffffffff8211156131bd576131bc61340a565b5b6131c682613439565b9050602081019050919050565b600081519050919050565b600081519050919050565b600082825260208201905092915050565b600082825260208201905092915050565b600081905092915050565b6000613221826132b4565b915061322c836132b4565b92508282101561323f5761323e6133ac565b5b828203905092915050565b600061325582613294565b9050919050565b60008115159050919050565b60007fffffffff0000000000000000000000000000000000000000000000000000000082169050919050565b600073ffffffffffffffffffffffffffffffffffffffff82169050919050565b6000819050919050565b82818337600083830152505050565b60005b838110156132eb5780820151818401526020810190506132d0565b838111156132fa576000848401525b50505050565b6000600282049050600182168061331857607f821691505b6020821081141561332c5761332b6133db565b5b50919050565b61333b82613439565b810181811067ffffffffffffffff8211171561335a5761335961340a565b5b80604052505050565b600061336e826132b4565b91507fffffffffffffffffffffffffffffffffffffffffffffffffffffffffffffffff8214156133a1576133a06133ac565b5b600182019050919050565b7f4e487b7100000000000000000000000000000000000000000000000000000000600052601160045260246000fd5b7f4e487b7100000000000000000000000000000000000000000000000000000000600052602260045260246000fd5b7f4e487b7100000000000000000000000000000000000000000000000000000000600052604160045260246000fd5b6000601f19601f8301169050919050565b7f4552433732313a2063616c6c6572206973206e6f7420746f6b656e206f776e6560008201527f72206f7220617070726f76656400000000000000000000000000000000000000602082015250565b7f455243373231456e756d657261626c653a206f776e657220696e646578206f7560008201527f74206f6620626f756e6473000000000000000000000000000000000000000000602082015250565b7f4552433732313a207472616e7366657220746f206e6f6e20455243373231526560008201527f63656976657220696d706c656d656e7465720000000000000000000000000000602082015250565b7f4f776e61626c653a206e6577206f776e657220697320746865207a65726f206160008201527f6464726573730000000000000000000000000000000000000000000000000000602082015250565b7f4552433732313a207472616e736665722066726f6d20696e636f72726563742060008201527f6f776e6572000000000000000000000000000000000000000000000000000000602082015250565b7f4552433732313a20746f6b656e20616c7265616479206d696e74656400000000600082015250565b7f4552433732313a207472616e7366657220746f20746865207a65726f2061646460008201527f7265737300000000000000000000000000000000000000000000000000000000602082015250565b7f4552433732313a20617070726f766520746f2063616c6c657200000000000000600082015250565b7f4552433732313a2061646472657373207a65726f206973206e6f74206120766160008201527f6c6964206f776e65720000000000000000000000000000000000000000000000602082015250565b7f45524337323155524953746f726167653a2055524920736574206f66206e6f6e60008201527f6578697374656e7420746f6b656e000000000000000000000000000000000000602082015250565b7f4552433732313a206d696e7420746f20746865207a65726f2061646472657373600082015250565b7f546f6b656e20646f6573206e6f742065786973742e0000000000000000000000600082015250565b7f4f776e61626c653a2063616c6c6572206973206e6f7420746865206f776e6572600082015250565b7f4552433732313a20696e76616c696420746f6b656e2049440000000000000000600082015250565b7f4552433732313a20617070726f76616c20746f2063757272656e74206f776e6560008201527f7200000000000000000000000000000000000000000000000000000000000000602082015250565b7f4552433732313a20617070726f76652063616c6c6572206973206e6f7420746f60008201527f6b656e206f776e6572206f7220617070726f76656420666f7220616c6c000000602082015250565b7f455243373231456e756d657261626c653a20676c6f62616c20696e646578206f60008201527f7574206f6620626f756e64730000000000000000000000000000000000000000602082015250565b7f455243373231456e756d657261626c653a20636f6e736563757469766520747260008201527f616e7366657273206e6f7420737570706f727465640000000000000000000000602082015250565b6138fd8161324a565b811461390857600080fd5b50565b6139148161325c565b811461391f57600080fd5b50565b61392b81613268565b811461393657600080fd5b50565b613942816132b4565b811461394d57600080fd5b5056fea2646970667358221220402e1c29ac82fcf8978a700b351fa449fe38432bcf02acd67fb646be0600483e64736f6c63430008010033",
  "immutableReferences": {},
  "source": "// SPDX-License-Identifier: MIT\r\npragma solidity ^0.8.1;\r\n\r\nimport \"@openzeppelin/contracts/token/ERC721/extensions/ERC721URIStorage.sol\";\r\nimport \"@openzeppelin/contracts/token/ERC721/extensions/ERC721Enumerable.sol\";\r\nimport \"@openzeppelin/contracts/access/Ownable.sol\";\r\n\r\ncontract MyNFT is ERC721URIStorage, ERC721Enumerable, Ownable {\r\n    uint256 public nextTokenId;\r\n\r\n    // NFT   \r\n    event Minted(address recipient, uint256 tokenId, string tokenURI);\r\n\r\n    constructor() ERC721(\"MyNFT\", \"MNFT\") {}\r\n\r\n    //     \r\n    function mint(address recipient, string memory _tokenURI) external {\r\n        uint256 tokenId = nextTokenId;\r\n        nextTokenId++;\r\n        _mint(recipient, tokenId);\r\n        _setTokenURI(tokenId, _tokenURI);\r\n        \r\n        //   \r\n        emit Minted(recipient, tokenId, _tokenURI);\r\n    }\r\n\r\n    //    \r\n    function tokenExists(uint256 tokenId) public view returns (bool) {\r\n        try this.ownerOf(tokenId) returns (address owner) {\r\n            return owner != address(0);\r\n        } catch {\r\n            return false;\r\n        }\r\n    }\r\n\r\n    //  URI  \r\n    function tokenURI(uint256 tokenId) public view override(ERC721, ERC721URIStorage) returns (string memory) {\r\n        require(tokenExists(tokenId), \"Token does not exist.\");\r\n        return super.tokenURI(tokenId);\r\n    }\r\n\r\n    // ERC721Enumerable ERC721URIStorage supportsInterface \r\n    function supportsInterface(bytes4 interfaceId) public view virtual override(ERC721Enumerable, ERC721URIStorage) returns (bool) {\r\n        return super.supportsInterface(interfaceId);\r\n    }\r\n\r\n    //      _beforeTokenTransfer .\r\n    function _beforeTokenTransfer(address from, address to, uint256 firstTokenId, uint256 batchSize) internal virtual override(ERC721, ERC721Enumerable) {\r\n        super._beforeTokenTransfer(from, to, firstTokenId, batchSize);\r\n    }\r\n\r\n    //      _burn .\r\n    function _burn(uint256 tokenId) internal virtual override(ERC721URIStorage, ERC721) {\r\n        super._burn(tokenId);\r\n    }\r\n}\r\n",
  "sourcePath": "C:\\Users\\SSAFY\\Desktop\\Front\\S11P21C103\\blockchain\\NFT\\contracts\\MyNFT.sol",
  "compiler": {
    "name": "solc",
    "version": "0.8.1+commit.df193b15.Emscripten.clang"
  },
  "schemaVersion": "3.4.16",
  "updatedAt": "2024-10-10T11:31:19.195Z",
  "networkType": "ethereum",
  "devdoc": {
    "kind": "dev",
    "methods": {
      "approve(address,uint256)": {
        "details": "See {IERC721-approve}."
      },
      "balanceOf(address)": {
        "details": "See {IERC721-balanceOf}."
      },
      "getApproved(uint256)": {
        "details": "See {IERC721-getApproved}."
      },
      "isApprovedForAll(address,address)": {
        "details": "See {IERC721-isApprovedForAll}."
      },
      "name()": {
        "details": "See {IERC721Metadata-name}."
      },
      "owner()": {
        "details": "Returns the address of the current owner."
      },
      "ownerOf(uint256)": {
        "details": "See {IERC721-ownerOf}."
      },
      "renounceOwnership()": {
        "details": "Leaves the contract without owner. It will not be possible to call `onlyOwner` functions. Can only be called by the current owner. NOTE: Renouncing ownership will leave the contract without an owner, thereby disabling any functionality that is only available to the owner."
      },
      "safeTransferFrom(address,address,uint256)": {
        "details": "See {IERC721-safeTransferFrom}."
      },
      "safeTransferFrom(address,address,uint256,bytes)": {
        "details": "See {IERC721-safeTransferFrom}."
      },
      "setApprovalForAll(address,bool)": {
        "details": "See {IERC721-setApprovalForAll}."
      },
      "symbol()": {
        "details": "See {IERC721Metadata-symbol}."
      },
      "tokenByIndex(uint256)": {
        "details": "See {IERC721Enumerable-tokenByIndex}."
      },
      "tokenOfOwnerByIndex(address,uint256)": {
        "details": "See {IERC721Enumerable-tokenOfOwnerByIndex}."
      },
      "totalSupply()": {
        "details": "See {IERC721Enumerable-totalSupply}."
      },
      "transferFrom(address,address,uint256)": {
        "details": "See {IERC721-transferFrom}."
      },
      "transferOwnership(address)": {
        "details": "Transfers ownership of the contract to a new account (`newOwner`). Can only be called by the current owner."
      }
    },
    "version": 1
  },
  "userdoc": {
    "kind": "user",
    "methods": {},
    "version": 1
  }
}